{
  "contractName": "SimpleAuction",
  "abi": [
    {
      "inputs": [
        {
          "internalType": "uint256",
          "name": "_biddingTime",
          "type": "uint256"
        }
      ],
      "stateMutability": "nonpayable",
      "type": "constructor"
    },
    {
      "anonymous": false,
      "inputs": [
        {
          "indexed": true,
          "internalType": "address",
          "name": "winner",
          "type": "address"
        },
        {
          "indexed": false,
          "internalType": "uint256",
          "name": "amount",
          "type": "uint256"
        }
      ],
      "name": "AuctionEnded",
      "type": "event"
    },
    {
      "anonymous": false,
      "inputs": [
        {
          "indexed": true,
          "internalType": "address",
          "name": "bidder",
          "type": "address"
        },
        {
          "indexed": false,
          "internalType": "uint256",
          "name": "amount",
          "type": "uint256"
        }
      ],
      "name": "HighestBidIncreased",
      "type": "event"
    },
    {
      "inputs": [],
      "name": "auctionEndTime",
      "outputs": [
        {
          "internalType": "uint256",
          "name": "",
          "type": "uint256"
        }
      ],
      "stateMutability": "view",
      "type": "function",
      "constant": true
    },
    {
      "inputs": [],
      "name": "auctionEnded",
      "outputs": [
        {
          "internalType": "bool",
          "name": "",
          "type": "bool"
        }
      ],
      "stateMutability": "view",
      "type": "function",
      "constant": true
    },
    {
      "inputs": [],
      "name": "auctioneer",
      "outputs": [
        {
          "internalType": "address payable",
          "name": "",
          "type": "address"
        }
      ],
      "stateMutability": "view",
      "type": "function",
      "constant": true
    },
    {
      "inputs": [],
      "name": "highestBid",
      "outputs": [
        {
          "internalType": "uint256",
          "name": "",
          "type": "uint256"
        }
      ],
      "stateMutability": "view",
      "type": "function",
      "constant": true
    },
    {
      "inputs": [],
      "name": "highestBidder",
      "outputs": [
        {
          "internalType": "address",
          "name": "",
          "type": "address"
        }
      ],
      "stateMutability": "view",
      "type": "function",
      "constant": true
    },
    {
      "inputs": [],
      "name": "bid",
      "outputs": [],
      "stateMutability": "payable",
      "type": "function",
      "payable": true
    },
    {
      "inputs": [],
      "name": "withdraw",
      "outputs": [
        {
          "internalType": "bool",
          "name": "",
          "type": "bool"
        }
      ],
      "stateMutability": "nonpayable",
      "type": "function"
    },
    {
      "inputs": [],
      "name": "endAuction",
      "outputs": [],
      "stateMutability": "nonpayable",
      "type": "function"
    },
    {
      "inputs": [],
      "name": "remainingTime",
      "outputs": [
        {
          "internalType": "uint256",
          "name": "",
          "type": "uint256"
        }
      ],
      "stateMutability": "view",
      "type": "function",
      "constant": true
    }
  ],
  "bytecode": "0x608060405234801561001057600080fd5b506040516105c03803806105c083398101604081905261002f91610054565b600080546001600160a01b0319163317905561004b814261006d565b60035550610094565b60006020828403121561006657600080fd5b5051919050565b8082018082111561008e57634e487b7160e01b600052601160045260246000fd5b92915050565b61051d806100a36000396000f3fe6080604052600436106100865760003560e01c80638643337411610059578063864333741461011b57806391f9015714610135578063acc4bd0814610155578063d57bde791461016a578063fe67a54b1461018057600080fd5b80631998aeef1461008b5780633ccfd60b146100955780634b449cba146100bf5780635ec2c7bf146100e3575b600080fd5b610093610195565b005b3480156100a157600080fd5b506100aa6102c0565b60405190151581526020015b60405180910390f35b3480156100cb57600080fd5b506100d560035481565b6040519081526020016100b6565b3480156100ef57600080fd5b50600054610103906001600160a01b031681565b6040516001600160a01b0390911681526020016100b6565b34801561012757600080fd5b506004546100aa9060ff1681565b34801561014157600080fd5b50600254610103906001600160a01b031681565b34801561016157600080fd5b506100d5610358565b34801561017657600080fd5b506100d560015481565b34801561018c57600080fd5b5061009361037c565b60035442106101e45760405162461bcd60e51b815260206004820152601660248201527520bab1ba34b7b71030b63932b0b23c9032b73232b21760511b60448201526064015b60405180910390fd5b60015434116102355760405162461bcd60e51b815260206004820152601e60248201527f546865726520697320616c7265616479206120686967686572206269642e000060448201526064016101db565b60015415610270576001546002546001600160a01b03166000908152600560205260408120805490919061026a9084906104bb565b90915550505b600280546001600160a01b031916339081179091553460018190556040519081527ff4757a49b326036464bec6fe419a4ae38c8a02ce3e68bf0809674f6aab8ad3009060200160405180910390a2565b33600090815260056020526040812054801561035057336000818152600560205260408082208290555190919083908381818185875af1925050503d8060008114610327576040519150601f19603f3d011682016040523d82523d6000602084013e61032c565b606091505b505090508061034e575033600090815260056020526040812091909155919050565b505b600191505090565b600060035442106103695750600090565b4260035461037791906104d4565b905090565b6003544210156103c75760405162461bcd60e51b815260206004820152601660248201527520bab1ba34b7b7103737ba103cb2ba1032b73232b21760511b60448201526064016101db565b60045460ff16156104135760405162461bcd60e51b815260206004820152601660248201527520bab1ba34b7b71030b63932b0b23c9032b73232b21760511b60448201526064016101db565b6004805460ff1916600190811790915560025490546040519081526001600160a01b03909116907fdaec4582d5d9595688c8c98545fdd1c696d41c6aeaeb636737e84ed2f5c00eda9060200160405180910390a2600080546001546040516001600160a01b039092169281156108fc029290818181858888f193505050501580156104a2573d6000803e3d6000fd5b50565b634e487b7160e01b600052601160045260246000fd5b808201808211156104ce576104ce6104a5565b92915050565b818103818111156104ce576104ce6104a556fea26469706673582212205c144b158e977fb0ccbb4e5a83a047b802873dd3164cc4d07b70151bb8d1973c64736f6c63430008120033",
  "immutableReferences": {},
  "source": "// SPDX-License-Identifier: MIT\r\npragma solidity ^0.8.18;\r\n\r\ncontract SimpleAuction {\r\n    address payable public auctioneer;\r\n    uint public highestBid;\r\n    address public highestBidder;\r\n    uint public auctionEndTime;\r\n    bool public auctionEnded;\r\n\r\n    mapping(address => uint) private pendingReturns;\r\n\r\n    event AuctionEnded(address indexed winner, uint amount);\r\n    event HighestBidIncreased(address indexed bidder, uint amount);\r\n\r\n    constructor(uint _biddingTime) {\r\n        auctioneer = payable(msg.sender);\r\n        auctionEndTime = block.timestamp + _biddingTime;\r\n    }\r\n\r\n    function bid() public payable {\r\n        require(block.timestamp < auctionEndTime, \"Auction already ended.\");\r\n        require(msg.value > highestBid, \"There is already a higher bid.\");\r\n\r\n        // Refund the previously highest bidder\r\n        if (highestBid != 0) {\r\n            pendingReturns[highestBidder] += highestBid;\r\n        }\r\n\r\n        highestBidder = msg.sender;\r\n        highestBid = msg.value;\r\n        emit HighestBidIncreased(msg.sender, msg.value);\r\n    }\r\n\r\n    function withdraw() public returns (bool) {\r\n        uint amount = pendingReturns[msg.sender];\r\n        if (amount > 0) {\r\n            // Reset the pending return before sending to prevent reentrancy attacks\r\n            pendingReturns[msg.sender] = 0; \r\n            (bool success, ) = msg.sender.call{value: amount}(\"\");\r\n            if (!success) {\r\n                pendingReturns[msg.sender] = amount; // Revert the state change if sending fails\r\n                return false;\r\n            }\r\n        }\r\n        return true;\r\n    }\r\n\r\n    function endAuction() public {\r\n        require(block.timestamp >= auctionEndTime, \"Auction not yet ended.\");\r\n        require(!auctionEnded, \"Auction already ended.\");\r\n\r\n        auctionEnded = true;\r\n        emit AuctionEnded(highestBidder, highestBid);\r\n\r\n        auctioneer.transfer(highestBid);\r\n    }\r\n\r\n    // New function to get remaining time in seconds\r\n    function remainingTime() public view returns (uint) {\r\n        if (block.timestamp >= auctionEndTime) {\r\n            return 0;\r\n        } else {\r\n            return auctionEndTime - block.timestamp;\r\n        }\r\n    }\r\n}\r\n",
  "sourcePath": "G:\\SEM 7\\BLC\\BLC_Project\\backend\\contracts\\SimpleAuction.sol",
  "compiler": {
    "name": "solc",
    "version": "0.8.18+commit.87f61d96.Emscripten.clang"
  },
  "schemaVersion": "3.4.16",
  "updatedAt": "2024-10-23T21:43:54.478Z",
  "networkType": "ethereum",
  "devdoc": {
    "kind": "dev",
    "methods": {},
    "version": 1
  },
  "userdoc": {
    "kind": "user",
    "methods": {},
    "version": 1
  }
}