{
  "contractName": "SimpleAuction",
  "abi": [
    {
      "inputs": [
        {
          "internalType": "uint256",
          "name": "_biddingTime",
          "type": "uint256"
        }
      ],
      "stateMutability": "nonpayable",
      "type": "constructor"
    },
    {
      "anonymous": false,
      "inputs": [
        {
          "indexed": false,
          "internalType": "address",
          "name": "winner",
          "type": "address"
        },
        {
          "indexed": false,
          "internalType": "uint256",
          "name": "amount",
          "type": "uint256"
        }
      ],
      "name": "AuctionEnded",
      "type": "event"
    },
    {
      "anonymous": false,
      "inputs": [
        {
          "indexed": false,
          "internalType": "address",
          "name": "bidder",
          "type": "address"
        },
        {
          "indexed": false,
          "internalType": "uint256",
          "name": "amount",
          "type": "uint256"
        }
      ],
      "name": "HighestBidIncreased",
      "type": "event"
    },
    {
      "inputs": [],
      "name": "auctionEndTime",
      "outputs": [
        {
          "internalType": "uint256",
          "name": "",
          "type": "uint256"
        }
      ],
      "stateMutability": "view",
      "type": "function",
      "constant": true
    },
    {
      "inputs": [],
      "name": "auctionEnded",
      "outputs": [
        {
          "internalType": "bool",
          "name": "",
          "type": "bool"
        }
      ],
      "stateMutability": "view",
      "type": "function",
      "constant": true
    },
    {
      "inputs": [],
      "name": "auctioneer",
      "outputs": [
        {
          "internalType": "address payable",
          "name": "",
          "type": "address"
        }
      ],
      "stateMutability": "view",
      "type": "function",
      "constant": true
    },
    {
      "inputs": [],
      "name": "highestBid",
      "outputs": [
        {
          "internalType": "uint256",
          "name": "",
          "type": "uint256"
        }
      ],
      "stateMutability": "view",
      "type": "function",
      "constant": true
    },
    {
      "inputs": [],
      "name": "highestBidder",
      "outputs": [
        {
          "internalType": "address",
          "name": "",
          "type": "address"
        }
      ],
      "stateMutability": "view",
      "type": "function",
      "constant": true
    },
    {
      "inputs": [],
      "name": "bid",
      "outputs": [],
      "stateMutability": "payable",
      "type": "function",
      "payable": true
    },
    {
      "inputs": [],
      "name": "withdraw",
      "outputs": [
        {
          "internalType": "bool",
          "name": "",
          "type": "bool"
        }
      ],
      "stateMutability": "nonpayable",
      "type": "function"
    },
    {
      "inputs": [],
      "name": "endAuction",
      "outputs": [],
      "stateMutability": "nonpayable",
      "type": "function"
    }
  ],
  "bytecode": "0x608060405234801561001057600080fd5b5060405161053938038061053983398101604081905261002f91610054565b600080546001600160a01b0319163317905561004b814261006d565b60035550610094565b60006020828403121561006657600080fd5b5051919050565b8082018082111561008e57634e487b7160e01b600052601160045260246000fd5b92915050565b610496806100a36000396000f3fe60806040526004361061007b5760003560e01c8063864333741161004e578063864333741461011057806391f901571461012a578063d57bde791461014a578063fe67a54b1461016057600080fd5b80631998aeef146100805780633ccfd60b1461008a5780634b449cba146100b45780635ec2c7bf146100d8575b600080fd5b610088610175565b005b34801561009657600080fd5b5061009f6102a7565b60405190151581526020015b60405180910390f35b3480156100c057600080fd5b506100ca60035481565b6040519081526020016100ab565b3480156100e457600080fd5b506000546100f8906001600160a01b031681565b6040516001600160a01b0390911681526020016100ab565b34801561011c57600080fd5b5060045461009f9060ff1681565b34801561013657600080fd5b506002546100f8906001600160a01b031681565b34801561015657600080fd5b506100ca60015481565b34801561016c57600080fd5b5061008861030b565b60035442106101c45760405162461bcd60e51b815260206004820152601660248201527520bab1ba34b7b71030b63932b0b23c9032b73232b21760511b60448201526064015b60405180910390fd5b60015434116102155760405162461bcd60e51b815260206004820152601e60248201527f546865726520697320616c7265616479206120686967686572206269642e000060448201526064016101bb565b60015415610250576001546002546001600160a01b03166000908152600560205260408120805490919061024a908490610439565b90915550505b600280546001600160a01b031916339081179091553460018190556040805192835260208301919091527ff4757a49b326036464bec6fe419a4ae38c8a02ce3e68bf0809674f6aab8ad300910160405180910390a1565b33600090815260056020526040812054801561030357336000818152600560205260408082208290555183156108fc0291849190818181858888f193505050506103035733600090815260056020526040812091909155919050565b600191505090565b6003544210156103565760405162461bcd60e51b815260206004820152601660248201527520bab1ba34b7b7103737ba103cb2ba1032b73232b21760511b60448201526064016101bb565b60045460ff16156103a25760405162461bcd60e51b815260206004820152601660248201527520bab1ba34b7b71030b63932b0b23c9032b73232b21760511b60448201526064016101bb565b6004805460ff191660019081179091556002549054604080516001600160a01b03909316835260208301919091527fdaec4582d5d9595688c8c98545fdd1c696d41c6aeaeb636737e84ed2f5c00eda910160405180910390a1600080546001546040516001600160a01b039092169281156108fc029290818181858888f19350505050158015610436573d6000803e3d6000fd5b50565b8082018082111561045a57634e487b7160e01b600052601160045260246000fd5b9291505056fea2646970667358221220b6bccbd60276940e97a7d970176b7e2441627db215c22048a56b2dbb29a3f14864736f6c63430008120033",
  "immutableReferences": {},
  "source": "// SPDX-License-Identifier: MIT\r\npragma solidity ^0.8.18;\r\n\r\ncontract SimpleAuction {\r\n    address payable public auctioneer;\r\n    uint public highestBid;\r\n    address public highestBidder;\r\n    uint public auctionEndTime;\r\n    bool public auctionEnded;\r\n\r\n    mapping(address => uint) pendingReturns;\r\n\r\n    event AuctionEnded(address winner, uint amount);\r\n    event HighestBidIncreased(address bidder, uint amount);\r\n\r\n    constructor(uint _biddingTime) {\r\n        auctioneer = payable(msg.sender);\r\n        auctionEndTime = block.timestamp + _biddingTime;\r\n    }\r\n\r\n    function bid() public payable {\r\n        require(block.timestamp < auctionEndTime, \"Auction already ended.\");\r\n        require(msg.value > highestBid, \"There is already a higher bid.\");\r\n\r\n        if (highestBid != 0) {\r\n            pendingReturns[highestBidder] += highestBid;\r\n        }\r\n\r\n        highestBidder = msg.sender;\r\n        highestBid = msg.value;\r\n        emit HighestBidIncreased(msg.sender, msg.value);\r\n    }\r\n\r\n    function withdraw() public returns (bool) {\r\n        uint amount = pendingReturns[msg.sender];\r\n        if (amount > 0) {\r\n            pendingReturns[msg.sender] = 0;\r\n            if (!payable(msg.sender).send(amount)) {\r\n                pendingReturns[msg.sender] = amount;\r\n                return false;\r\n            }\r\n        }\r\n        return true;\r\n    }\r\n\r\n    function endAuction() public {\r\n        require(block.timestamp >= auctionEndTime, \"Auction not yet ended.\");\r\n        require(!auctionEnded, \"Auction already ended.\");\r\n\r\n        auctionEnded = true;\r\n        emit AuctionEnded(highestBidder, highestBid);\r\n\r\n        auctioneer.transfer(highestBid);\r\n    }\r\n}\r\n",
  "sourcePath": "G:\\SEM 7\\BLC\\BLC_Project\\backend\\contracts\\SimpleAuction.sol",
  "compiler": {
    "name": "solc",
    "version": "0.8.18+commit.87f61d96.Emscripten.clang"
  },
  "schemaVersion": "3.4.16",
  "updatedAt": "2024-10-23T13:51:53.980Z",
  "networkType": "ethereum",
  "devdoc": {
    "kind": "dev",
    "methods": {},
    "version": 1
  },
  "userdoc": {
    "kind": "user",
    "methods": {},
    "version": 1
  }
}